{
  "address": "0x276C216D241856199A83bf27b2286659e5b877D3",
  "abi": [
    {
      "inputs": [
        {
          "internalType": "address",
          "name": "_WETH",
          "type": "address"
        }
      ],
      "stateMutability": "nonpayable",
      "type": "constructor"
    },
    {
      "anonymous": false,
      "inputs": [
        {
          "indexed": true,
          "internalType": "address",
          "name": "token",
          "type": "address"
        }
      ],
      "name": "BaseTokenAdded",
      "type": "event"
    },
    {
      "anonymous": false,
      "inputs": [
        {
          "indexed": true,
          "internalType": "address",
          "name": "token",
          "type": "address"
        }
      ],
      "name": "BaseTokenRemoved",
      "type": "event"
    },
    {
      "anonymous": false,
      "inputs": [
        {
          "indexed": true,
          "internalType": "address",
          "name": "previousOwner",
          "type": "address"
        },
        {
          "indexed": true,
          "internalType": "address",
          "name": "newOwner",
          "type": "address"
        }
      ],
      "name": "OwnershipTransferred",
      "type": "event"
    },
    {
      "anonymous": false,
      "inputs": [
        {
          "indexed": true,
          "internalType": "address",
          "name": "to",
          "type": "address"
        },
        {
          "indexed": true,
          "internalType": "uint256",
          "name": "value",
          "type": "uint256"
        }
      ],
      "name": "Withdrawn",
      "type": "event"
    },
    {
      "stateMutability": "nonpayable",
      "type": "fallback"
    },
    {
      "inputs": [
        {
          "internalType": "address",
          "name": "token",
          "type": "address"
        }
      ],
      "name": "addBaseToken",
      "outputs": [],
      "stateMutability": "nonpayable",
      "type": "function"
    },
    {
      "inputs": [
        {
          "internalType": "address",
          "name": "token",
          "type": "address"
        }
      ],
      "name": "baseTokensContains",
      "outputs": [
        {
          "internalType": "bool",
          "name": "",
          "type": "bool"
        }
      ],
      "stateMutability": "view",
      "type": "function"
    },
    {
      "inputs": [
        {
          "internalType": "address",
          "name": "pool0",
          "type": "address"
        },
        {
          "internalType": "address",
          "name": "pool1",
          "type": "address"
        }
      ],
      "name": "flashArbitrage",
      "outputs": [],
      "stateMutability": "nonpayable",
      "type": "function"
    },
    {
      "inputs": [],
      "name": "getBaseTokens",
      "outputs": [
        {
          "internalType": "address[]",
          "name": "tokens",
          "type": "address[]"
        }
      ],
      "stateMutability": "view",
      "type": "function"
    },
    {
      "inputs": [
        {
          "internalType": "address",
          "name": "pool0",
          "type": "address"
        },
        {
          "internalType": "address",
          "name": "pool1",
          "type": "address"
        }
      ],
      "name": "getProfit",
      "outputs": [
        {
          "internalType": "uint256",
          "name": "profit",
          "type": "uint256"
        },
        {
          "internalType": "address",
          "name": "baseToken",
          "type": "address"
        }
      ],
      "stateMutability": "view",
      "type": "function"
    },
    {
      "inputs": [],
      "name": "owner",
      "outputs": [
        {
          "internalType": "address",
          "name": "",
          "type": "address"
        }
      ],
      "stateMutability": "view",
      "type": "function"
    },
    {
      "inputs": [
        {
          "internalType": "address",
          "name": "token",
          "type": "address"
        }
      ],
      "name": "removeBaseToken",
      "outputs": [],
      "stateMutability": "nonpayable",
      "type": "function"
    },
    {
      "inputs": [],
      "name": "renounceOwnership",
      "outputs": [],
      "stateMutability": "nonpayable",
      "type": "function"
    },
    {
      "inputs": [
        {
          "internalType": "address",
          "name": "newOwner",
          "type": "address"
        }
      ],
      "name": "transferOwnership",
      "outputs": [],
      "stateMutability": "nonpayable",
      "type": "function"
    },
    {
      "inputs": [
        {
          "internalType": "address",
          "name": "sender",
          "type": "address"
        },
        {
          "internalType": "uint256",
          "name": "amount0",
          "type": "uint256"
        },
        {
          "internalType": "uint256",
          "name": "amount1",
          "type": "uint256"
        },
        {
          "internalType": "bytes",
          "name": "data",
          "type": "bytes"
        }
      ],
      "name": "uniswapV2Call",
      "outputs": [],
      "stateMutability": "nonpayable",
      "type": "function"
    },
    {
      "inputs": [],
      "name": "withdraw",
      "outputs": [],
      "stateMutability": "nonpayable",
      "type": "function"
    },
    {
      "stateMutability": "payable",
      "type": "receive"
    }
  ],
  "transactionHash": "0x293ec2eefd2bf0fef20817159440e7cc5eec03e5d135c9f43668cd82742b2704",
  "args": [
    "0xD0141E899a65C95a556fE2B27e5982A6DE7fDD7A"
  ],
  "numDeployments": 1,
  "solcInputHash": "4904af6aee4f10b6440df1cbc4cf4d9d",
  "bytecode": "0x60a0604052600180546001600160a01b031916811790553480156200002357600080fd5b50604051620030ae380380620030ae833981016040819052620000469162000141565b62000051336200007f565b6001600160a01b03811660805262000077600282620000cf602090811b6200115017901c565b505062000173565b600080546001600160a01b038381166001600160a01b0319831681178455604051919092169283917f8be0079c531659141344cd1fd0a4f28419497f9722a3daafe3b4186f6b6457e09190a35050565b6000620000e6836001600160a01b038416620000ef565b90505b92915050565b60008181526001830160205260408120546200013857508154600181810184556000848152602080822090930184905584548482528286019093526040902091909155620000e9565b506000620000e9565b6000602082840312156200015457600080fd5b81516001600160a01b03811681146200016c57600080fd5b9392505050565b608051612f226200018c60003960005050612f226000f3fe6080604052600436106100905760003560e01c806310d1e85c146100ea57806321d094261461010c5780633ccfd60b14610141578063715018a614610156578063759eee101461016b57806383e280d9146101a85780638da5cb5b146101c8578063baee64f1146101ea578063bbd1e1221461020a578063bed64c2f1461022a578063f2fde38b1461024c57610097565b3661009757005b3480156100a357600080fd5b506000366060828080806100ba8660048184612686565b8101906100c79190612767565b93509350935093506100db8484848461026c565b50505050915050805190602001f35b3480156100f657600080fd5b5061010a610105366004612767565b61026c565b005b34801561011857600080fd5b5061012c6101273660046127c9565b610618565b60405190151581526020015b60405180910390f35b34801561014d57600080fd5b5061010a61062b565b34801561016257600080fd5b5061010a6107dc565b34801561017757600080fd5b5061018b6101863660046127e6565b6107f0565b604080519283526001600160a01b03909116602083015201610138565b3480156101b457600080fd5b5061010a6101c33660046127c9565b610949565b3480156101d457600080fd5b506101dd610994565b604051610138919061281f565b3480156101f657600080fd5b5061010a6102053660046127e6565b6109a3565b34801561021657600080fd5b5061010a6102253660046127c9565b610eee565b34801561023657600080fd5b5061023f61102c565b6040516101389190612833565b34801561025857600080fd5b5061010a6102673660046127c9565b6110d7565b6102a2604051806040016040528060158152602001741d5b9a5cddd85c158c90d85b1b081a5b8819909bdd605a1b81525061116c565b6001546001600160a01b031633146103015760405162461bcd60e51b815260206004820152601d60248201527f4e6f6e207065726d697373696f6e656420616464726573732063616c6c00000060448201526064015b60405180910390fd5b6001600160a01b03841630146103525760405162461bcd60e51b8152602060048201526016602482015275139bdd08199c9bdb481d1a1a5cc818dbdb9d1c9858dd60521b60448201526064016102f8565b60008361035f5782610361565b835b90506103936040518060400160405280600e81526020016d3137b93937bb9030b6b7bab73a1d60911b815250826111af565b6000828060200190518101906103a99190612895565b602081015160608201519192506103ca916001600160a01b031690846111f4565b6103fd6040518060400160405280600d81526020016c3137b93937bb903a37b5b2b71d60991b815250826060015161124f565b60008082604001516104155760008360c0015161041d565b8260c0015160005b915091506104736040518060400160405280600b81526020016a30b6b7bab73a1827baba1d60a91b815250836040518060400160405280600b81526020016a30b6b7bab73a18a7baba1d60a91b81525084611294565b60208301516001600160a01b031663022c0d9f83833060006040519080825280601f01601f1916602001820160405280156104b5576020820181803683370190505b506040518563ffffffff1660e01b81526004016104d59493929190612998565b600060405180830381600087803b1580156104ef57600080fd5b505af1158015610503573d6000803e3d6000fd5b505050506105396040518060400160405280600c81526020016b3a30b933b2ba103837b7b61d60a11b815250846020015161124f565b825160a0840151608085015161055a926001600160a01b03909116916111f4565b610595604051806040016040528060158152602001743a3930b739b332b932b2103232b13a103837b7b61d60591b815250846000015161124f565b6105d1604051806040016040528060168152602001753a3930b739b332b932b2103232b13a103a37b5b2b71d60511b815250846080015161124f565b61060e604051806040016040528060178152602001763a3930b739b332b932b2103232b13a1030b6b7bab73a1d60491b8152508460a001516111af565b5050505050505050565b60006106256002836112e3565b92915050565b4780156106b25761063a610994565b6001600160a01b03166108fc829081150290604051600060405180830381858888f19350505050158015610672573d6000803e3d6000fd5b508061067c610994565b6001600160a01b03167f7084f5476618d8e60b11ef0d7d3f06914655adb8793e28ff7f018d4c76d505d560405160405180910390a35b60005b6106bf60026112f8565b8110156107d85760006106d3600283611302565b6040516370a0823160e01b81529091506001600160a01b038216906370a082319061070290309060040161281f565b602060405180830381865afa15801561071f573d6000803e3d6000fd5b505050506040513d601f19601f8201168201806040525081019061074391906129c5565b925082156107c557806001600160a01b031663a9059cbb610762610994565b856040518363ffffffff1660e01b81526004016107809291906129de565b6020604051808303816000875af115801561079f573d6000803e3d6000fd5b505050506040513d601f19601f820116820180604052508101906107c391906129f7565b505b50806107d081612a28565b9150506106b5565b5050565b6107e461130e565b6107ee600061136d565b565b60008060006107ff85856113bd565b505090508061086f57846001600160a01b031663d21220a76040518163ffffffff1660e01b8152600401602060405180830381865afa158015610846573d6000803e3d6000fd5b505050506040513d601f19601f8201168201806040525081019061086a9190612a43565b6108d1565b846001600160a01b0316630dfe16816040518163ffffffff1660e01b8152600401602060405180830381865afa1580156108ad573d6000803e3d6000fd5b505050506040513d601f19601f820116820180604052508101906108d19190612a43565b915060006108e086868461172d565b9250505060006108ef82611956565b905060006109068284600001518560200151611c94565b9050600061091d8385606001518660400151611d73565b905081811015610930576000965061093d565b61093a8282612a60565b96505b50505050509250929050565b61095161130e565b61095c600282611150565b506040516001600160a01b038216907ffa1388d6e7328e9c711a539b0addfc27de8bfb6f5924cce26f80f41023b1525390600090a250565b6000546001600160a01b031690565b6040805160a0810182526000808252602082018190529181018290526060810182905260808101919091526109d883836113bd565b6001600160a01b039081166020850152168252151560408201526109fa61265e565b610a098484846040015161172d565b6001600160a01b03918216608086015291811660608501819052600180546001600160a01b031916909117905583516040516370a0823160e01b81529293506000929116906370a0823190610a6290309060040161281f565b602060405180830381865afa158015610a7f573d6000803e3d6000fd5b505050506040513d601f19601f82011682018060405250810190610aa391906129c5565b90506000610ab083611956565b90506000808560400151610ac657826000610aca565b6000835b915091506000610ae38487600001518860200151611c94565b90506000610afa8588606001518960400151611d73565b9050818111610b475760405162461bcd60e51b8152602060048201526019602482015278105c989a5d1c9859d94819985a5b0b081b9bc81c1c9bd99a5d603a1b60448201526064016102f8565b604080518082019091526007815266283937b334ba1d60c91b6020820152610b8b90670de0b6b3a7640000610b7c8585612a60565b610b869190612a8d565b6111af565b6040805160e081018252600080825260208201819052918101829052606081018290526080810182905260a0810182905260c08101919091526060808a01516001600160a01b0390811683526080808c015182166020808601919091526040808e0151151581870152818e01518416948601949094528c519092169084015260a0830185905260c083018490529051600091610c819184910181516001600160a01b0390811682526020808401518216908301526040808401511515908301526060808401518216908301526080808401519091169082015260a0828101519082015260c0918201519181019190915260e00190565b60408051601f19818403018152828201909152601482527331b0b63634b73390333630b9b41039bbb0b8171760611b60208301529150610cc09061116c565b89606001516001600160a01b031663022c0d9f878730856040518563ffffffff1660e01b8152600401610cf69493929190612998565b600060405180830381600087803b158015610d1057600080fd5b505af1158015610d24573d6000803e3d6000fd5b5050505050505050505050610d6260405180604001604052806012815260200171666c6173682073776170207375636365737360701b81525061116c565b82516040516370a0823160e01b81526000916001600160a01b0316906370a0823190610d9290309060040161281f565b602060405180830381865afa158015610daf573d6000803e3d6000fd5b505050506040513d601f19601f82011682018060405250810190610dd391906129c5565b9050610e066040518060400160405280600f81526020016e3130b630b731b2b9a132b337b9329d60891b815250836111af565b610e366040518060400160405280600e81526020016d3130b630b731b2b9a0b33a32b91d60911b815250826111af565b818111610e745760405162461bcd60e51b815260206004820152600c60248201526b4c6f73696e67206d6f6e657960a01b60448201526064016102f8565b610ea26040518060400160405280600d81526020016c3bb4ba34323930bbb4b733971760991b81525061116c565b610ed4604051806040016040528060118152602001703bb4ba34323930bb9039bab1b1b2b9b99760791b81525061116c565b5050600180546001600160a01b0319168117905550505050565b610ef661130e565b6040516370a0823160e01b81526000906001600160a01b038316906370a0823190610f2590309060040161281f565b602060405180830381865afa158015610f42573d6000803e3d6000fd5b505050506040513d601f19601f82011682018060405250810190610f6691906129c5565b90508015610fe857816001600160a01b031663a9059cbb610f85610994565b836040518363ffffffff1660e01b8152600401610fa39291906129de565b6020604051808303816000875af1158015610fc2573d6000803e3d6000fd5b505050506040513d601f19601f82011682018060405250810190610fe691906129f7565b505b610ff3600283611e4b565b506040516001600160a01b038316907fdc23a849435922f20a9732eb85192a9d0c1cb34725ebe6d7de0be10212ba02fb90600090a25050565b6060600061103a60026112f8565b9050806001600160401b03811115611054576110546126c5565b60405190808252806020026020018201604052801561107d578160200160208202803683370190505b50915060005b818110156110d257611096600282611302565b8382815181106110a8576110a8612aa1565b6001600160a01b0390921660209283029190910190910152806110ca81612a28565b915050611083565b505090565b6110df61130e565b6001600160a01b0381166111445760405162461bcd60e51b815260206004820152602660248201527f4f776e61626c653a206e6577206f776e657220697320746865207a65726f206160448201526564647265737360d01b60648201526084016102f8565b61114d8161136d565b50565b6000611165836001600160a01b038416611e60565b9392505050565b61114d816040516024016111809190612ab7565b60408051601f198184030181529190526020810180516001600160e01b031663104c13eb60e21b179052611eaa565b6107d882826040516024016111c5929190612aca565b60408051601f198184030181529190526020810180516001600160e01b03166309710a9d60e41b179052611eaa565b61124a8363a9059cbb60e01b84846040516024016112139291906129de565b60408051601f198184030181529190526020810180516001600160e01b03166001600160e01b031990931692909217909152611ecb565b505050565b6107d88282604051602401611265929190612aec565b60408051601f198184030181529190526020810180516001600160e01b031663319af33360e01b179052611eaa565b6112dd848484846040516024016112ae9493929190612b16565b60408051601f198184030181529190526020810180516001600160e01b031663a0c4b22560e01b179052611eaa565b50505050565b6000611165836001600160a01b038416611f9d565b6000610625825490565b60006111658383611fb5565b33611317610994565b6001600160a01b0316146107ee5760405162461bcd60e51b815260206004820181905260248201527f4f776e61626c653a2063616c6c6572206973206e6f7420746865206f776e657260448201526064016102f8565b600080546001600160a01b038381166001600160a01b0319831681178455604051919092169283917f8be0079c531659141344cd1fd0a4f28419497f9722a3daafe3b4186f6b6457e09190a35050565b6000806000836001600160a01b0316856001600160a01b031614156114185760405162461bcd60e51b815260206004820152601160248201527053616d652070616972206164647265737360781b60448201526064016102f8565b600080866001600160a01b0316630dfe16816040518163ffffffff1660e01b8152600401602060405180830381865afa158015611459573d6000803e3d6000fd5b505050506040513d601f19601f8201168201806040525081019061147d9190612a43565b876001600160a01b031663d21220a76040518163ffffffff1660e01b8152600401602060405180830381865afa1580156114bb573d6000803e3d6000fd5b505050506040513d601f19601f820116820180604052508101906114df9190612a43565b91509150600080876001600160a01b0316630dfe16816040518163ffffffff1660e01b8152600401602060405180830381865afa158015611524573d6000803e3d6000fd5b505050506040513d601f19601f820116820180604052508101906115489190612a43565b886001600160a01b031663d21220a76040518163ffffffff1660e01b8152600401602060405180830381865afa158015611586573d6000803e3d6000fd5b505050506040513d601f19601f820116820180604052508101906115aa9190612a43565b91509150826001600160a01b0316846001600160a01b03161080156115e05750806001600160a01b0316826001600160a01b0316105b61162c5760405162461bcd60e51b815260206004820152601d60248201527f4e6f6e207374616e6461726420756e697377617020414d4d207061697200000060448201526064016102f8565b816001600160a01b0316846001600160a01b031614801561165e5750806001600160a01b0316836001600160a01b0316145b6116a45760405162461bcd60e51b81526020600482015260176024820152762932b8bab4b9329039b0b6b2903a37b5b2b7103830b4b960491b60448201526064016102f8565b6116ad84610618565b806116bc57506116bc83610618565b6117005760405162461bcd60e51b81526020600482015260156024820152742737903130b9b2903a37b5b2b71034b7103830b4b960591b60448201526064016102f8565b61170984610618565b611716576000838561171b565b600184845b919b909a509098509650505050505050565b60008061173861265e565b600080876001600160a01b0316630902f1ac6040518163ffffffff1660e01b8152600401606060405180830381865afa158015611779573d6000803e3d6000fd5b505050506040513d601f19601f8201168201806040525081019061179d9190612b6a565b506001600160701b031691506001600160701b03169150600080886001600160a01b0316630902f1ac6040518163ffffffff1660e01b8152600401606060405180830381865afa1580156117f5573d6000803e3d6000fd5b505050506040513d601f19601f820116820180604052508101906118199190612b6a565b506001600160701b031691506001600160701b031691506000808961185d5761184b8661184587611fdf565b90612014565b6118588561184586611fdf565b611877565b61186a8561184588611fdf565b6118778461184587611fdf565b90925090506118868282612045565b156118ba578b98508a97508961189f57848684866118a4565b858585855b60608b015260408a0152602089015287526118e5565b8a98508b9750896118ce57828486886118d3565b838387875b60608b015260408a0152602089015287525b611918604051806040016040528060118152602001702137b93937bb90333937b6903837b7b61d60791b8152508a61124f565b6119476040518060400160405280600d81526020016c29b2b636103a37903837b7b61d60991b8152508961124f565b50505050505093509350939050565b6000808260200151836000015110611972578260200151611975565b82515b905060008360600151846040015110611992578360600151611998565b83604001515b905060008183106119a957816119ab565b825b9050600069d3c21bcecceda10000008211156119d1575068056bc75e2d63100000611ae8565b69152d02c7e14af68000008211156119f25750678ac7230489e80000611ae8565b69021e19e0c9bab2400000821115611a135750670de0b6b3a7640000611ae8565b683635c9adc5dea00000821115611a33575067016345785d8a0000611ae8565b68056bc75e2d63100000821115611a525750662386f26fc10000611ae8565b678ac7230489e80000821115611a70575066038d7ea4c68000611ae8565b670de0b6b3a7640000821115611a8d5750655af3107a4000611ae8565b67016345785d8a0000821115611aaa57506509184e72a000611ae8565b662386f26fc10000821115611ac5575064e8d4a51000611ae8565b66038d7ea4c68000821115611ae0575064174876e800611ae8565b506402540be4005b600080600080848a60000151611afe9190612a8d565b858b60400151611b0e9190612a8d565b868c60200151611b1e9190612a8d565b878d60600151611b2e9190612a8d565b935093509350935060008184611b449190612bba565b611b4e8487612bba565b611b589190612c3f565b90506000611b668587612c7e565b83611b72866002612bba565b611b7c9190612bba565b611b869190612bba565b90506000611b948587612bba565b611b9e8589612bba565b611ba89190612c3f565b611bb28587612bba565b611bbc9190612bba565b9050600080611bcc858585612059565b91509150600082138015611bdf57508682125b8015611bea57508582125b80611c0a5750600081138015611bff57508681125b8015611c0a57508581125b611c4a5760405162461bcd60e51b81526020600482015260116024820152702bb937b7339034b7383aba1037b93232b960791b60448201526064016102f8565b600082138015611c5957508682125b8015611c6457508582125b611c7757611c728a82612cbf565b611c81565b611c818a83612cbf565b9f9e505050505050505050505050505050565b6000808411611cfa5760405162461bcd60e51b815260206004820152602c60248201527f556e697377617056324c6962726172793a20494e53554646494349454e545f4f60448201526b155514155517d05353d5539560a21b60648201526084016102f8565b600083118015611d0a5750600082115b611d265760405162461bcd60e51b81526004016102f890612cde565b6000611d3e6103e8611d388688612138565b90612138565b90506000611d526103e5611d38868961219f565b9050611d696001611d638385612a8d565b906121f5565b9695505050505050565b6000808411611dd85760405162461bcd60e51b815260206004820152602b60248201527f556e697377617056324c6962726172793a20494e53554646494349454e545f4960448201526a1394155517d05353d5539560aa1b60648201526084016102f8565b600083118015611de85750600082115b611e045760405162461bcd60e51b81526004016102f890612cde565b6000611e12856103e5612138565b90506000611e208285612138565b90506000611e3483611d63886103e8612138565b9050611e408183612a8d565b979650505050505050565b6000611165836001600160a01b03841661224a565b6000611e6c8383611f9d565b611ea257508154600181810184556000848152602080822090930184905584548482528286019093526040902091909155610625565b506000610625565b80516a636f6e736f6c652e6c6f67602083016000808483855afa5050505050565b6000611f20826040518060400160405280602081526020017f5361666545524332303a206c6f772d6c6576656c2063616c6c206661696c6564815250856001600160a01b031661233d9092919063ffffffff16565b80519091501561124a5780806020019051810190611f3e91906129f7565b61124a5760405162461bcd60e51b815260206004820152602a60248201527f5361666545524332303a204552433230206f7065726174696f6e20646964206e6044820152691bdd081cdd58d8d9595960b21b60648201526084016102f8565b60009081526001919091016020526040902054151590565b6000826000018281548110611fcc57611fcc612aa1565b9060005260206000200154905092915050565b60408051602081019091526000815260408051602081019091528061200c84670de0b6b3a7640000612354565b905292915050565b60408051602081019091526000815260408051602081019091528351819061203c90856123d3565b90529392505050565b60006120518383612412565b159392505050565b6000808083612069876004612bba565b6120739190612bba565b61207e600287612e5b565b6120889190612c3f565b9050600081136120cb5760405162461bcd60e51b815260206004820152600e60248201526d21b7b6b83632bc10373ab6b132b960911b60448201526064016102f8565b60006120d682612444565b90506120e3876002612bba565b816120ed88612e6a565b6120f79190612c7e565b6121019190612e87565b935061210e876002612bba565b8161211888612e6a565b6121229190612c3f565b61212c9190612e87565b92505050935093915050565b600081158061215c5750828261214e8183612cbf565b925061215a9083612a8d565b145b6106255760405162461bcd60e51b815260206004820152601460248201527364732d6d6174682d6d756c2d6f766572666c6f7760601b60448201526064016102f8565b6000826121ac8382612a60565b91508111156106255760405162461bcd60e51b815260206004820152601560248201527464732d6d6174682d7375622d756e646572666c6f7760581b60448201526064016102f8565b6000826122028382612eb5565b91508110156106255760405162461bcd60e51b815260206004820152601460248201527364732d6d6174682d6164642d6f766572666c6f7760601b60448201526064016102f8565b6000818152600183016020526040812054801561233357600061226e600183612a60565b855490915060009061228290600190612a60565b90508181146122e75760008660000182815481106122a2576122a2612aa1565b90600052602060002001549050808760000184815481106122c5576122c5612aa1565b6000918252602080832090910192909255918252600188019052604090208390555b85548690806122f8576122f8612ecd565b600190038181906000526020600020016000905590558560010160008681526020019081526020016000206000905560019350505050610625565b6000915050610625565b606061234c84846000856124c5565b949350505050565b60008261236357506000610625565b600061236f8385612cbf565b90508261237c8583612a8d565b146111655760405162461bcd60e51b815260206004820152602160248201527f536166654d6174683a206d756c7469706c69636174696f6e206f766572666c6f6044820152607760f81b60648201526084016102f8565b600061116583836040518060400160405280601a815260200179536166654d6174683a206469766973696f6e206279207a65726f60301b815250612595565b80518251600091141561242757506001610625565b815183511161243757600061243a565b60025b60ff169392505050565b60006001821161245657612456612ee3565b600061246583620f4240612cbf565b91508190508060005b600261247a8584612a8d565b6124849086612eb5565b61248e9190612a8d565b90506103e861249d8286612a60565b10156124a8576124b0565b80935061246e565b6124bc6103e885612a8d565b95945050505050565b6060824710156125265760405162461bcd60e51b815260206004820152602660248201527f416464726573733a20696e73756666696369656e742062616c616e636520666f6044820152651c8818d85b1b60d21b60648201526084016102f8565b600080866001600160a01b031685876040516125429190612ef9565b60006040518083038185875af1925050503d806000811461257f576040519150601f19603f3d011682016040523d82523d6000602084013e612584565b606091505b5091509150611e40878383876125c3565b600081836125b65760405162461bcd60e51b81526004016102f89190612ab7565b5060006124bc8486612a8d565b6060831561262f578251612628576001600160a01b0385163b6126285760405162461bcd60e51b815260206004820152601d60248201527f416464726573733a2063616c6c20746f206e6f6e2d636f6e747261637400000060448201526064016102f8565b508161234c565b61234c83838151156126445781518083602001fd5b8060405162461bcd60e51b81526004016102f89190612ab7565b6040518060800160405280600081526020016000815260200160008152602001600081525090565b6000808585111561269657600080fd5b838611156126a357600080fd5b5050820193919092039150565b6001600160a01b038116811461114d57600080fd5b634e487b7160e01b600052604160045260246000fd5b600082601f8301126126ec57600080fd5b81356001600160401b0380821115612706576127066126c5565b604051601f8301601f19908116603f0116810190828211818310171561272e5761272e6126c5565b8160405283815286602085880101111561274757600080fd5b836020870160208301376000602085830101528094505050505092915050565b6000806000806080858703121561277d57600080fd5b8435612788816126b0565b9350602085013592506040850135915060608501356001600160401b038111156127b157600080fd5b6127bd878288016126db565b91505092959194509250565b6000602082840312156127db57600080fd5b8135611165816126b0565b600080604083850312156127f957600080fd5b8235612804816126b0565b91506020830135612814816126b0565b809150509250929050565b6001600160a01b0391909116815260200190565b6020808252825182820181905260009190848201906040850190845b818110156128745783516001600160a01b03168352928401929184019160010161284f565b50909695505050505050565b8051801515811461289057600080fd5b919050565b600060e082840312156128a757600080fd5b60405160e081016001600160401b03811182821017156128c9576128c96126c5565b60405282516128d7816126b0565b815260208301516128e7816126b0565b60208201526128f860408401612880565b6040820152606083015161290b816126b0565b6060820152608083015161291e816126b0565b608082015260a0838101519082015260c0928301519281019290925250919050565b60005b8381101561295b578181015183820152602001612943565b838111156112dd5750506000910152565b60008151808452612984816020860160208601612940565b601f01601f19169290920160200192915050565b84815283602082015260018060a01b0383166040820152608060608201526000611d69608083018461296c565b6000602082840312156129d757600080fd5b5051919050565b6001600160a01b03929092168252602082015260400190565b600060208284031215612a0957600080fd5b61116582612880565b634e487b7160e01b600052601160045260246000fd5b6000600019821415612a3c57612a3c612a12565b5060010190565b600060208284031215612a5557600080fd5b8151611165816126b0565b600082821015612a7257612a72612a12565b500390565b634e487b7160e01b600052601260045260246000fd5b600082612a9c57612a9c612a77565b500490565b634e487b7160e01b600052603260045260246000fd5b602081526000611165602083018461296c565b604081526000612add604083018561296c565b90508260208301529392505050565b604081526000612aff604083018561296c565b905060018060a01b03831660208301529392505050565b608081526000612b29608083018761296c565b8560208401528281036040840152612b41818661296c565b91505082606083015295945050505050565b80516001600160701b038116811461289057600080fd5b600080600060608486031215612b7f57600080fd5b612b8884612b53565b9250612b9660208501612b53565b9150604084015163ffffffff81168114612baf57600080fd5b809150509250925092565b60006001600160ff1b0381841382841380821686840486111615612be057612be0612a12565b600160ff1b6000871282811687830589121615612bff57612bff612a12565b60008712925087820587128484161615612c1b57612c1b612a12565b87850587128184161615612c3157612c31612a12565b505050929093029392505050565b60008083128015600160ff1b850184121615612c5d57612c5d612a12565b6001600160ff1b0384018313811615612c7857612c78612a12565b50500390565b600080821280156001600160ff1b0384900385131615612ca057612ca0612a12565b600160ff1b8390038412811615612cb957612cb9612a12565b50500190565b6000816000190483118215151615612cd957612cd9612a12565b500290565b60208082526028908201527f556e697377617056324c6962726172793a20494e53554646494349454e545f4c604082015267495155494449545960c01b606082015260800190565b80825b6001808611612d385750612d6b565b6001600160ff1b03829004821115612d5257612d52612a12565b80861615612d5f57918102915b9490941c938002612d29565b935093915050565b6000828015612d895760018114612d9357612d9c565b6001915050610625565b82915050610625565b5081612daa57506000610625565b50600160008213808214612dc3578015612de257612dfc565b6001600160ff1b03839004831115612ddd57612ddd612a12565b612dfc565b6001600160ff1b03839005831215612dfc57612dfc612a12565b5080831615612e085750805b612e188360011c83840283612d26565b600082136001600160ff1b0382900483111615612e3757612e37612a12565b60008212600160ff1b82900583121615612e5357612e53612a12565b029392505050565b600061116560ff841683612d73565b6000600160ff1b821415612e8057612e80612a12565b5060000390565b600082612e9657612e96612a77565b600160ff1b821460001984141615612eb057612eb0612a12565b500590565b60008219821115612ec857612ec8612a12565b500190565b634e487b7160e01b600052603160045260246000fd5b634e487b7160e01b600052600160045260246000fd5b60008251612f0b818460208701612940565b919091019291505056fea164736f6c634300080b000a",
  "devdoc": {
    "kind": "dev",
    "methods": {
      "flashArbitrage(address,address)": {
        "details": "Two pools must contains same token pair"
      },
      "owner()": {
        "details": "Returns the address of the current owner."
      },
      "renounceOwnership()": {
        "details": "Leaves the contract without owner. It will not be possible to call `onlyOwner` functions anymore. Can only be called by the current owner. NOTE: Renouncing ownership will leave the contract without an owner, thereby removing any functionality that is only available to the owner."
      },
      "transferOwnership(address)": {
        "details": "Transfers ownership of the contract to a new account (`newOwner`). Can only be called by the current owner."
      }
    },
    "version": 1
  },
  "userdoc": {
    "kind": "user",
    "methods": {
      "flashArbitrage(address,address)": {
        "notice": "Do an arbitrage between two Uniswap-like AMM pools"
      },
      "getProfit(address,address)": {
        "notice": "Calculate how much profit we can by arbitraging between two pools"
      }
    },
    "version": 1
  },
  "storageLayout": {
    "storage": [
      {
        "astId": 1717,
        "contract": "contracts/FlashBot.sol:FlashBot",
        "label": "_owner",
        "offset": 0,
        "slot": "0",
        "type": "t_address"
      },
      {
        "astId": 72,
        "contract": "contracts/FlashBot.sol:FlashBot",
        "label": "permissionedPairAddress",
        "offset": 0,
        "slot": "1",
        "type": "t_address"
      },
      {
        "astId": 77,
        "contract": "contracts/FlashBot.sol:FlashBot",
        "label": "baseTokens",
        "offset": 0,
        "slot": "2",
        "type": "t_struct(AddressSet)12358_storage"
      }
    ],
    "types": {
      "t_address": {
        "encoding": "inplace",
        "label": "address",
        "numberOfBytes": "20"
      },
      "t_array(t_bytes32)dyn_storage": {
        "base": "t_bytes32",
        "encoding": "dynamic_array",
        "label": "bytes32[]",
        "numberOfBytes": "32"
      },
      "t_bytes32": {
        "encoding": "inplace",
        "label": "bytes32",
        "numberOfBytes": "32"
      },
      "t_mapping(t_bytes32,t_uint256)": {
        "encoding": "mapping",
        "key": "t_bytes32",
        "label": "mapping(bytes32 => uint256)",
        "numberOfBytes": "32",
        "value": "t_uint256"
      },
      "t_struct(AddressSet)12358_storage": {
        "encoding": "inplace",
        "label": "struct EnumerableSet.AddressSet",
        "members": [
          {
            "astId": 12357,
            "contract": "contracts/FlashBot.sol:FlashBot",
            "label": "_inner",
            "offset": 0,
            "slot": "0",
            "type": "t_struct(Set)12057_storage"
          }
        ],
        "numberOfBytes": "64"
      },
      "t_struct(Set)12057_storage": {
        "encoding": "inplace",
        "label": "struct EnumerableSet.Set",
        "members": [
          {
            "astId": 12052,
            "contract": "contracts/FlashBot.sol:FlashBot",
            "label": "_values",
            "offset": 0,
            "slot": "0",
            "type": "t_array(t_bytes32)dyn_storage"
          },
          {
            "astId": 12056,
            "contract": "contracts/FlashBot.sol:FlashBot",
            "label": "_indexes",
            "offset": 0,
            "slot": "1",
            "type": "t_mapping(t_bytes32,t_uint256)"
          }
        ],
        "numberOfBytes": "64"
      },
      "t_uint256": {
        "encoding": "inplace",
        "label": "uint256",
        "numberOfBytes": "32"
      }
    }
  }
}